{
  "_format": "hh-sol-artifact-1",
  "contractName": "MyNFT",
  "sourceName": "contracts/Proxy.sol",
  "abi": [
    {
      "anonymous": false,
      "inputs": [
        {
          "indexed": true,
          "internalType": "address",
          "name": "owner",
          "type": "address"
        },
        {
          "indexed": true,
          "internalType": "address",
          "name": "approved",
          "type": "address"
        },
        {
          "indexed": true,
          "internalType": "uint256",
          "name": "tokenId",
          "type": "uint256"
        }
      ],
      "name": "Approval",
      "type": "event"
    },
    {
      "anonymous": false,
      "inputs": [
        {
          "indexed": true,
          "internalType": "address",
          "name": "owner",
          "type": "address"
        },
        {
          "indexed": true,
          "internalType": "address",
          "name": "operator",
          "type": "address"
        },
        {
          "indexed": false,
          "internalType": "bool",
          "name": "approved",
          "type": "bool"
        }
      ],
      "name": "ApprovalForAll",
      "type": "event"
    },
    {
      "anonymous": false,
      "inputs": [
        {
          "indexed": true,
          "internalType": "address",
          "name": "from",
          "type": "address"
        },
        {
          "indexed": true,
          "internalType": "address",
          "name": "to",
          "type": "address"
        },
        {
          "indexed": true,
          "internalType": "uint256",
          "name": "tokenId",
          "type": "uint256"
        }
      ],
      "name": "Transfer",
      "type": "event"
    },
    {
      "inputs": [
        {
          "internalType": "address",
          "name": "to",
          "type": "address"
        },
        {
          "internalType": "uint256",
          "name": "tokenId",
          "type": "uint256"
        }
      ],
      "name": "approve",
      "outputs": [],
      "stateMutability": "nonpayable",
      "type": "function"
    },
    {
      "inputs": [
        {
          "internalType": "address",
          "name": "owner",
          "type": "address"
        }
      ],
      "name": "balanceOf",
      "outputs": [
        {
          "internalType": "uint256",
          "name": "",
          "type": "uint256"
        }
      ],
      "stateMutability": "view",
      "type": "function"
    },
    {
      "inputs": [
        {
          "internalType": "uint256",
          "name": "tokenId",
          "type": "uint256"
        }
      ],
      "name": "getApproved",
      "outputs": [
        {
          "internalType": "address",
          "name": "",
          "type": "address"
        }
      ],
      "stateMutability": "view",
      "type": "function"
    },
    {
      "inputs": [
        {
          "internalType": "string",
          "name": "name",
          "type": "string"
        },
        {
          "internalType": "string",
          "name": "sym",
          "type": "string"
        }
      ],
      "name": "initialize",
      "outputs": [],
      "stateMutability": "nonpayable",
      "type": "function"
    },
    {
      "inputs": [
        {
          "internalType": "address",
          "name": "owner",
          "type": "address"
        },
        {
          "internalType": "address",
          "name": "operator",
          "type": "address"
        }
      ],
      "name": "isApprovedForAll",
      "outputs": [
        {
          "internalType": "bool",
          "name": "",
          "type": "bool"
        }
      ],
      "stateMutability": "view",
      "type": "function"
    },
    {
      "inputs": [
        {
          "internalType": "uint256",
          "name": "tokenId",
          "type": "uint256"
        }
      ],
      "name": "mint",
      "outputs": [],
      "stateMutability": "nonpayable",
      "type": "function"
    },
    {
      "inputs": [],
      "name": "name",
      "outputs": [
        {
          "internalType": "string",
          "name": "",
          "type": "string"
        }
      ],
      "stateMutability": "view",
      "type": "function"
    },
    {
      "inputs": [
        {
          "internalType": "uint256",
          "name": "tokenId",
          "type": "uint256"
        }
      ],
      "name": "ownerOf",
      "outputs": [
        {
          "internalType": "address",
          "name": "",
          "type": "address"
        }
      ],
      "stateMutability": "view",
      "type": "function"
    },
    {
      "inputs": [
        {
          "internalType": "address",
          "name": "from",
          "type": "address"
        },
        {
          "internalType": "address",
          "name": "to",
          "type": "address"
        },
        {
          "internalType": "uint256",
          "name": "tokenId",
          "type": "uint256"
        }
      ],
      "name": "safeTransferFrom",
      "outputs": [],
      "stateMutability": "nonpayable",
      "type": "function"
    },
    {
      "inputs": [
        {
          "internalType": "address",
          "name": "from",
          "type": "address"
        },
        {
          "internalType": "address",
          "name": "to",
          "type": "address"
        },
        {
          "internalType": "uint256",
          "name": "tokenId",
          "type": "uint256"
        },
        {
          "internalType": "bytes",
          "name": "_data",
          "type": "bytes"
        }
      ],
      "name": "safeTransferFrom",
      "outputs": [],
      "stateMutability": "nonpayable",
      "type": "function"
    },
    {
      "inputs": [
        {
          "internalType": "address",
          "name": "operator",
          "type": "address"
        },
        {
          "internalType": "bool",
          "name": "approved",
          "type": "bool"
        }
      ],
      "name": "setApprovalForAll",
      "outputs": [],
      "stateMutability": "nonpayable",
      "type": "function"
    },
    {
      "inputs": [
        {
          "internalType": "bytes4",
          "name": "interfaceId",
          "type": "bytes4"
        }
      ],
      "name": "supportsInterface",
      "outputs": [
        {
          "internalType": "bool",
          "name": "",
          "type": "bool"
        }
      ],
      "stateMutability": "view",
      "type": "function"
    },
    {
      "inputs": [],
      "name": "symbol",
      "outputs": [
        {
          "internalType": "string",
          "name": "",
          "type": "string"
        }
      ],
      "stateMutability": "view",
      "type": "function"
    },
    {
      "inputs": [
        {
          "internalType": "uint256",
          "name": "tokenId",
          "type": "uint256"
        }
      ],
      "name": "tokenURI",
      "outputs": [
        {
          "internalType": "string",
          "name": "",
          "type": "string"
        }
      ],
      "stateMutability": "view",
      "type": "function"
    },
    {
      "inputs": [
        {
          "internalType": "address",
          "name": "from",
          "type": "address"
        },
        {
          "internalType": "address",
          "name": "to",
          "type": "address"
        },
        {
          "internalType": "uint256",
          "name": "tokenId",
          "type": "uint256"
        }
      ],
      "name": "transferFrom",
      "outputs": [],
      "stateMutability": "nonpayable",
      "type": "function"
    }
  ],
  "bytecode": "0x608060405234801561001057600080fd5b50611966806100206000396000f3fe608060405234801561001057600080fd5b50600436106100f55760003560e01c80636352211e11610097578063a22cb46511610066578063a22cb465146101ff578063b88d4fde14610212578063c87b56dd14610225578063e985e9c51461023857600080fd5b80636352211e146101b057806370a08231146101c357806395d89b41146101e4578063a0712d68146101ec57600080fd5b8063095ea7b3116100d3578063095ea7b31461016257806323b872dd1461017757806342842e0e1461018a5780634cd88b761461019d57600080fd5b806301ffc9a7146100fa57806306fdde0314610122578063081812fc14610137575b600080fd5b61010d6101083660046114a9565b610274565b60405190151581526020015b60405180910390f35b61012a6102c6565b604051610119919061151e565b61014a610145366004611531565b610358565b6040516001600160a01b039091168152602001610119565b610175610170366004611566565b6103f2565b005b610175610185366004611590565b610508565b610175610198366004611590565b61058f565b6101756101ab366004611678565b6105aa565b61014a6101be366004611531565b610668565b6101d66101d13660046116dc565b6106f3565b604051908152602001610119565b61012a61078d565b6101756101fa366004611531565b61079c565b61017561020d3660046116f7565b6107a9565b610175610220366004611733565b6107b8565b61012a610233366004611531565b610846565b61010d6102463660046117af565b6001600160a01b039182166000908152606a6020908152604080832093909416825291909152205460ff1690565b60006001600160e01b031982166380ac58cd60e01b14806102a557506001600160e01b03198216635b5e139f60e01b145b806102c057506301ffc9a760e01b6001600160e01b03198316145b92915050565b6060606580546102d5906117e2565b80601f0160208091040260200160405190810160405280929190818152602001828054610301906117e2565b801561034e5780601f106103235761010080835404028352916020019161034e565b820191906000526020600020905b81548152906001019060200180831161033157829003601f168201915b5050505050905090565b6000818152606760205260408120546001600160a01b03166103d65760405162461bcd60e51b815260206004820152602c60248201527f4552433732313a20617070726f76656420717565727920666f72206e6f6e657860448201526b34b9ba32b73a103a37b5b2b760a11b60648201526084015b60405180910390fd5b506000908152606960205260409020546001600160a01b031690565b60006103fd82610668565b9050806001600160a01b0316836001600160a01b0316141561046b5760405162461bcd60e51b815260206004820152602160248201527f4552433732313a20617070726f76616c20746f2063757272656e74206f776e656044820152603960f91b60648201526084016103cd565b336001600160a01b038216148061048757506104878133610246565b6104f95760405162461bcd60e51b815260206004820152603860248201527f4552433732313a20617070726f76652063616c6c6572206973206e6f74206f7760448201527f6e6572206e6f7220617070726f76656420666f7220616c6c000000000000000060648201526084016103cd565b6105038383610961565b505050565b61051233826109dc565b6105845760405162461bcd60e51b815260206004820152603160248201527f4552433732313a207472616e736665722063616c6c6572206973206e6f74206f60448201527f776e6572206e6f7220617070726f76656400000000000000000000000000000060648201526084016103cd565b610503838383610ad3565b610503838383604051806020016040528060008152506107b8565b600054610100900460ff16806105c3575060005460ff16155b6106265760405162461bcd60e51b815260206004820152602e60248201527f496e697469616c697a61626c653a20636f6e747261637420697320616c72656160448201526d191e481a5b9a5d1a585b1a5e995960921b60648201526084016103cd565b600054610100900460ff16158015610648576000805461ffff19166101011790555b6106528383610c94565b8015610503576000805461ff0019169055505050565b6000818152606760205260408120546001600160a01b0316806102c05760405162461bcd60e51b815260206004820152602960248201527f4552433732313a206f776e657220717565727920666f72206e6f6e657869737460448201527f656e7420746f6b656e000000000000000000000000000000000000000000000060648201526084016103cd565b60006001600160a01b0382166107715760405162461bcd60e51b815260206004820152602a60248201527f4552433732313a2062616c616e636520717565727920666f7220746865207a6560448201527f726f20616464726573730000000000000000000000000000000000000000000060648201526084016103cd565b506001600160a01b031660009081526068602052604090205490565b6060606680546102d5906117e2565b6107a63382610d4c565b50565b6107b4338383610e9b565b5050565b6107c233836109dc565b6108345760405162461bcd60e51b815260206004820152603160248201527f4552433732313a207472616e736665722063616c6c6572206973206e6f74206f60448201527f776e6572206e6f7220617070726f76656400000000000000000000000000000060648201526084016103cd565b61084084848484610f6a565b50505050565b6000818152606760205260409020546060906001600160a01b03166108d35760405162461bcd60e51b815260206004820152602f60248201527f4552433732314d657461646174613a2055524920717565727920666f72206e6f60448201527f6e6578697374656e7420746f6b656e000000000000000000000000000000000060648201526084016103cd565b600061090f60408051808201909152600781527f697066733a2f2f00000000000000000000000000000000000000000000000000602082015290565b9050600081511161092f576040518060200160405280600081525061095a565b8061093984610ff3565b60405160200161094a92919061181d565b6040516020818303038152906040525b9392505050565b6000818152606960205260409020805473ffffffffffffffffffffffffffffffffffffffff19166001600160a01b03841690811790915581906109a382610668565b6001600160a01b03167f8c5be1e5ebec7d5bd14f71427d1e84f3dd0314c0f7b2291e5b200ac8c7c3b92560405160405180910390a45050565b6000818152606760205260408120546001600160a01b0316610a555760405162461bcd60e51b815260206004820152602c60248201527f4552433732313a206f70657261746f7220717565727920666f72206e6f6e657860448201526b34b9ba32b73a103a37b5b2b760a11b60648201526084016103cd565b6000610a6083610668565b9050806001600160a01b0316846001600160a01b03161480610a9b5750836001600160a01b0316610a9084610358565b6001600160a01b0316145b80610acb57506001600160a01b038082166000908152606a602090815260408083209388168352929052205460ff165b949350505050565b826001600160a01b0316610ae682610668565b6001600160a01b031614610b625760405162461bcd60e51b815260206004820152602960248201527f4552433732313a207472616e73666572206f6620746f6b656e2074686174206960448201527f73206e6f74206f776e000000000000000000000000000000000000000000000060648201526084016103cd565b6001600160a01b038216610bc45760405162461bcd60e51b8152602060048201526024808201527f4552433732313a207472616e7366657220746f20746865207a65726f206164646044820152637265737360e01b60648201526084016103cd565b610bcf600082610961565b6001600160a01b0383166000908152606860205260408120805460019290610bf8908490611862565b90915550506001600160a01b0382166000908152606860205260408120805460019290610c26908490611879565b9091555050600081815260676020526040808220805473ffffffffffffffffffffffffffffffffffffffff19166001600160a01b0386811691821790925591518493918716917fddf252ad1be2c89b69c2b068fc378daa952ba7f163c4a11628f55a4df523b3ef91a4505050565b600054610100900460ff1680610cad575060005460ff16155b610d105760405162461bcd60e51b815260206004820152602e60248201527f496e697469616c697a61626c653a20636f6e747261637420697320616c72656160448201526d191e481a5b9a5d1a585b1a5e995960921b60648201526084016103cd565b600054610100900460ff16158015610d32576000805461ffff19166101011790555b610d3a611109565b610d42611109565b61065283836111bb565b6001600160a01b038216610da25760405162461bcd60e51b815260206004820181905260248201527f4552433732313a206d696e7420746f20746865207a65726f206164647265737360448201526064016103cd565b6000818152606760205260409020546001600160a01b031615610e075760405162461bcd60e51b815260206004820152601c60248201527f4552433732313a20746f6b656e20616c7265616479206d696e7465640000000060448201526064016103cd565b6001600160a01b0382166000908152606860205260408120805460019290610e30908490611879565b9091555050600081815260676020526040808220805473ffffffffffffffffffffffffffffffffffffffff19166001600160a01b03861690811790915590518392907fddf252ad1be2c89b69c2b068fc378daa952ba7f163c4a11628f55a4df523b3ef908290a45050565b816001600160a01b0316836001600160a01b03161415610efd5760405162461bcd60e51b815260206004820152601960248201527f4552433732313a20617070726f766520746f2063616c6c65720000000000000060448201526064016103cd565b6001600160a01b038381166000818152606a6020908152604080832094871680845294825291829020805460ff191686151590811790915591519182527f17307eab39ab6107e8899845ad3d59bd9653f200f220920489ca2b5937696c31910160405180910390a3505050565b610f75848484610ad3565b610f8184848484611297565b6108405760405162461bcd60e51b815260206004820152603260248201527f4552433732313a207472616e7366657220746f206e6f6e20455243373231526560448201527f63656976657220696d706c656d656e746572000000000000000000000000000060648201526084016103cd565b6060816110175750506040805180820190915260018152600360fc1b602082015290565b8160005b8115611041578061102b81611891565b915061103a9050600a836118c2565b915061101b565b60008167ffffffffffffffff81111561105c5761105c6115cc565b6040519080825280601f01601f191660200182016040528015611086576020820181803683370190505b5090505b8415610acb5761109b600183611862565b91506110a8600a866118d6565b6110b3906030611879565b60f81b8183815181106110c8576110c86118ea565b60200101907effffffffffffffffffffffffffffffffffffffffffffffffffffffffffffff1916908160001a905350611102600a866118c2565b945061108a565b600054610100900460ff1680611122575060005460ff16155b6111855760405162461bcd60e51b815260206004820152602e60248201527f496e697469616c697a61626c653a20636f6e747261637420697320616c72656160448201526d191e481a5b9a5d1a585b1a5e995960921b60648201526084016103cd565b600054610100900460ff161580156111a7576000805461ffff19166101011790555b80156107a6576000805461ff001916905550565b600054610100900460ff16806111d4575060005460ff16155b6112375760405162461bcd60e51b815260206004820152602e60248201527f496e697469616c697a61626c653a20636f6e747261637420697320616c72656160448201526d191e481a5b9a5d1a585b1a5e995960921b60648201526084016103cd565b600054610100900460ff16158015611259576000805461ffff19166101011790555b825161126c9060659060208601906113fa565b5081516112809060669060208501906113fa565b508015610503576000805461ff0019169055505050565b60006001600160a01b0384163b156113ef57604051630a85bd0160e11b81526001600160a01b0385169063150b7a02906112db903390899088908890600401611900565b602060405180830381600087803b1580156112f557600080fd5b505af1925050508015611325575060408051601f3d908101601f191682019092526113229181019061193c565b60015b6113d5573d808015611353576040519150601f19603f3d011682016040523d82523d6000602084013e611358565b606091505b5080516113cd5760405162461bcd60e51b815260206004820152603260248201527f4552433732313a207472616e7366657220746f206e6f6e20455243373231526560448201527f63656976657220696d706c656d656e746572000000000000000000000000000060648201526084016103cd565b805181602001fd5b6001600160e01b031916630a85bd0160e11b149050610acb565b506001949350505050565b828054611406906117e2565b90600052602060002090601f016020900481019282611428576000855561146e565b82601f1061144157805160ff191683800117855561146e565b8280016001018555821561146e579182015b8281111561146e578251825591602001919060010190611453565b5061147a92915061147e565b5090565b5b8082111561147a576000815560010161147f565b6001600160e01b0319811681146107a657600080fd5b6000602082840312156114bb57600080fd5b813561095a81611493565b60005b838110156114e15781810151838201526020016114c9565b838111156108405750506000910152565b6000815180845261150a8160208601602086016114c6565b601f01601f19169290920160200192915050565b60208152600061095a60208301846114f2565b60006020828403121561154357600080fd5b5035919050565b80356001600160a01b038116811461156157600080fd5b919050565b6000806040838503121561157957600080fd5b6115828361154a565b946020939093013593505050565b6000806000606084860312156115a557600080fd5b6115ae8461154a565b92506115bc6020850161154a565b9150604084013590509250925092565b634e487b7160e01b600052604160045260246000fd5b600067ffffffffffffffff808411156115fd576115fd6115cc565b604051601f8501601f19908116603f01168101908282118183101715611625576116256115cc565b8160405280935085815286868601111561163e57600080fd5b858560208301376000602087830101525050509392505050565b600082601f83011261166957600080fd5b61095a838335602085016115e2565b6000806040838503121561168b57600080fd5b823567ffffffffffffffff808211156116a357600080fd5b6116af86838701611658565b935060208501359150808211156116c557600080fd5b506116d285828601611658565b9150509250929050565b6000602082840312156116ee57600080fd5b61095a8261154a565b6000806040838503121561170a57600080fd5b6117138361154a565b91506020830135801515811461172857600080fd5b809150509250929050565b6000806000806080858703121561174957600080fd5b6117528561154a565b93506117606020860161154a565b925060408501359150606085013567ffffffffffffffff81111561178357600080fd5b8501601f8101871361179457600080fd5b6117a3878235602084016115e2565b91505092959194509250565b600080604083850312156117c257600080fd5b6117cb8361154a565b91506117d96020840161154a565b90509250929050565b600181811c908216806117f657607f821691505b6020821081141561181757634e487b7160e01b600052602260045260246000fd5b50919050565b6000835161182f8184602088016114c6565b8351908301906118438183602088016114c6565b01949350505050565b634e487b7160e01b600052601160045260246000fd5b6000828210156118745761187461184c565b500390565b6000821982111561188c5761188c61184c565b500190565b60006000198214156118a5576118a561184c565b5060010190565b634e487b7160e01b600052601260045260246000fd5b6000826118d1576118d16118ac565b500490565b6000826118e5576118e56118ac565b500690565b634e487b7160e01b600052603260045260246000fd5b60006001600160a01b0380871683528086166020840152508360408301526080606083015261193260808301846114f2565b9695505050505050565b60006020828403121561194e57600080fd5b815161095a8161149356fea164736f6c6343000809000a",
  "linkReferences": {},
  "deployedLinkReferences": {}
}