{
  "_format": "hh-sol-artifact-1",
  "contractName": "MyProxy",
  "sourceName": "contracts/Proxy.sol",
  "abi": [
    {
      "inputs": [
        {
          "internalType": "address",
          "name": "_logic",
          "type": "address"
        },
        {
          "internalType": "bytes",
          "name": "_data",
          "type": "bytes"
        }
      ],
      "stateMutability": "nonpayable",
      "type": "constructor"
    },
    {
      "anonymous": false,
      "inputs": [
        {
          "indexed": false,
          "internalType": "address",
          "name": "previousAdmin",
          "type": "address"
        },
        {
          "indexed": false,
          "internalType": "address",
          "name": "newAdmin",
          "type": "address"
        }
      ],
      "name": "AdminChanged",
      "type": "event"
    },
    {
      "anonymous": false,
      "inputs": [
        {
          "indexed": true,
          "internalType": "address",
          "name": "beacon",
          "type": "address"
        }
      ],
      "name": "BeaconUpgraded",
      "type": "event"
    },
    {
      "anonymous": false,
      "inputs": [
        {
          "indexed": true,
          "internalType": "address",
          "name": "implementation",
          "type": "address"
        }
      ],
      "name": "Upgraded",
      "type": "event"
    },
    {
      "stateMutability": "payable",
      "type": "fallback"
    },
    {
      "inputs": [
        {
          "internalType": "address",
          "name": "_logic",
          "type": "address"
        },
        {
          "internalType": "bytes",
          "name": "_data",
          "type": "bytes"
        }
      ],
      "name": "upgrade",
      "outputs": [],
      "stateMutability": "nonpayable",
      "type": "function"
    },
    {
      "stateMutability": "payable",
      "type": "receive"
    }
  ],
  "bytecode": "0x60806040523480156200001157600080fd5b5060405162000c2338038062000c238339810160408190526200003491620004aa565b81816200006360017f360894a13ba1a3210667c828492db98dca3e2076cc3735a920a3ca505d382bbd62000585565b60008051602062000bdc83398151915214620000835762000083620005ab565b6200009182826000620000a7565b506200009f905033620000e4565b505062000614565b620000b2836200013f565b600082511180620000c05750805b15620000df57620000dd83836200018160201b620000df1760201c565b505b505050565b7f7e644d79422f17c01e4894b5f4f588d331ebfa28653d42ae832dc59e38c9798f6200010f620001b0565b604080516001600160a01b03928316815291841660208301520160405180910390a16200013c81620001e9565b50565b6200014a816200029e565b6040516001600160a01b038216907fbc7cd75a20ee27fd9adebab32041f755214dbc6bffa90cc0225b39da2e5c2d3b90600090a250565b6060620001a9838360405180606001604052806027815260200162000bfc6027913962000341565b9392505050565b6000620001da60008051602062000bbc83398151915260001b6200041e60201b6200010b1760201c565b546001600160a01b0316919050565b6001600160a01b038116620002545760405162461bcd60e51b815260206004820152602660248201527f455243313936373a206e65772061646d696e20697320746865207a65726f206160448201526564647265737360d01b60648201526084015b60405180910390fd5b806200027d60008051602062000bbc83398151915260001b6200041e60201b6200010b1760201c565b80546001600160a01b0319166001600160a01b039290921691909117905550565b620002b4816200042160201b6200010e1760201c565b620003185760405162461bcd60e51b815260206004820152602d60248201527f455243313936373a206e657720696d706c656d656e746174696f6e206973206e60448201526c1bdd08184818dbdb9d1c9858dd609a1b60648201526084016200024b565b806200027d60008051602062000bdc83398151915260001b6200041e60201b6200010b1760201c565b6060833b620003a25760405162461bcd60e51b815260206004820152602660248201527f416464726573733a2064656c65676174652063616c6c20746f206e6f6e2d636f6044820152651b9d1c9858dd60d21b60648201526084016200024b565b600080856001600160a01b031685604051620003bf9190620005c1565b600060405180830381855af49150503d8060008114620003fc576040519150601f19603f3d011682016040523d82523d6000602084013e62000401565b606091505b5090925090506200041482828662000427565b9695505050505050565b90565b3b151590565b6060831562000438575081620001a9565b825115620004495782518084602001fd5b8160405162461bcd60e51b81526004016200024b9190620005df565b634e487b7160e01b600052604160045260246000fd5b60005b83811015620004985781810151838201526020016200047e565b83811115620000dd5750506000910152565b60008060408385031215620004be57600080fd5b82516001600160a01b0381168114620004d657600080fd5b60208401519092506001600160401b0380821115620004f457600080fd5b818501915085601f8301126200050957600080fd5b8151818111156200051e576200051e62000465565b604051601f8201601f19908116603f0116810190838211818310171562000549576200054962000465565b816040528281528860208487010111156200056357600080fd5b620005768360208301602088016200047b565b80955050505050509250929050565b600082821015620005a657634e487b7160e01b600052601160045260246000fd5b500390565b634e487b7160e01b600052600160045260246000fd5b60008251620005d58184602087016200047b565b9190910192915050565b6020815260008251806020840152620006008160408501602087016200047b565b601f01601f19169190910160400192915050565b61059880620006246000396000f3fe6080604052600436106100225760003560e01c8063c987336c1461003957610031565b366100315761002f610059565b005b61002f610059565b34801561004557600080fd5b5061002f610054366004610419565b61006b565b610069610064610114565b610123565b565b3361007461014c565b6001600160a01b0316146100cf5760405162461bcd60e51b815260206004820152600960248201527f6e6f742061646d696e000000000000000000000000000000000000000000000060448201526064015b60405180910390fd5b6100db8282600061017f565b5050565b60606101048383604051806060016040528060278152602001610565602791396101aa565b9392505050565b90565b3b151590565b600061011e610295565b905090565b3660008037600080366000845af43d6000803e808015610142573d6000f35b3d6000fd5b505050565b60007fb53127684a568b3173ae13b9f8a6016e243e63b6e8ee1178d6a717850b5d61035b546001600160a01b0316919050565b610188836102bd565b6000825111806101955750805b15610147576101a483836100df565b50505050565b6060833b6102205760405162461bcd60e51b815260206004820152602660248201527f416464726573733a2064656c65676174652063616c6c20746f206e6f6e2d636f60448201527f6e7472616374000000000000000000000000000000000000000000000000000060648201526084016100c6565b600080856001600160a01b03168560405161023b9190610515565b600060405180830381855af49150503d8060008114610276576040519150601f19603f3d011682016040523d82523d6000602084013e61027b565b606091505b509150915061028b8282866102fd565b9695505050505050565b60007f360894a13ba1a3210667c828492db98dca3e2076cc3735a920a3ca505d382bbc610170565b6102c681610336565b6040516001600160a01b038216907fbc7cd75a20ee27fd9adebab32041f755214dbc6bffa90cc0225b39da2e5c2d3b90600090a250565b6060831561030c575081610104565b82511561031c5782518084602001fd5b8160405162461bcd60e51b81526004016100c69190610531565b803b6103aa5760405162461bcd60e51b815260206004820152602d60248201527f455243313936373a206e657720696d706c656d656e746174696f6e206973206e60448201527f6f74206120636f6e74726163740000000000000000000000000000000000000060648201526084016100c6565b7f360894a13ba1a3210667c828492db98dca3e2076cc3735a920a3ca505d382bbc80547fffffffffffffffffffffffff0000000000000000000000000000000000000000166001600160a01b0392909216919091179055565b634e487b7160e01b600052604160045260246000fd5b6000806040838503121561042c57600080fd5b82356001600160a01b038116811461044357600080fd5b9150602083013567ffffffffffffffff8082111561046057600080fd5b818501915085601f83011261047457600080fd5b81358181111561048657610486610403565b604051601f8201601f19908116603f011681019083821181831017156104ae576104ae610403565b816040528281528860208487010111156104c757600080fd5b8260208601602083013760006020848301015280955050505050509250929050565b60005b838110156105045781810151838201526020016104ec565b838111156101a45750506000910152565b600082516105278184602087016104e9565b9190910192915050565b60208152600082518060208401526105508160408501602087016104e9565b601f01601f1916919091016040019291505056fe416464726573733a206c6f772d6c6576656c2064656c65676174652063616c6c206661696c6564a164736f6c6343000809000ab53127684a568b3173ae13b9f8a6016e243e63b6e8ee1178d6a717850b5d6103360894a13ba1a3210667c828492db98dca3e2076cc3735a920a3ca505d382bbc416464726573733a206c6f772d6c6576656c2064656c65676174652063616c6c206661696c6564",
  "linkReferences": {},
  "deployedLinkReferences": {}
}